:100000000C9434000C9451000C9451000C94510049
:100010000C9451000C9451000C9451000C9451001C
:100020000C9451000C94C9010C9451000C942402BE
:100030000C9451000C94EE010C9451000C9451005E
:100040000C94E4010C9451000C9451000C94510058
:100050000C9451000C9451000C9451000C945100DC
:100060000C9451000C94510011241FBECFEFD4E02A
:10007000DEBFCDBF11E0A0E0B1E0E2EEF1E102C0F1
:1000800005900D92A034B107D9F723E0A0E4B1E0C8
:1000900001C01D92A23FB207E1F70E946B030C94CE
:1000A000EF080C94000080E480937C0087E8809344
:1000B0007A0008952091400130E0F901EE0FFF1F12
:1000C000EE0FFF1FEF5BFE4F91838083738362838C
:1000D000C90101966CE370E00E94DD058093400148
:1000E000089515B88FE084B988E187B918B81BB8AE
:1000F00082EF8AB985E085BD16BC81E080936E00F1
:100100001092800093E090938100109285001092ED
:10011000840010928700109286001092890010923D
:10012000880010928B0010928A0090936F001092BA
:10013000B6001092B0001092B2001092B3008093FB
:1001400070001092C00088E98093C10086E8809317
:10015000C2001092C5008CE08093C400EAE7F0E092
:1001600080818660808380E480937C00ABE7B0E090
:100170008C91887F8C93808180838081806880834C
:100180007894089585B1846085B985E88A95F1F7FA
:10019000000085B18B7F85B985E88A95F1F700006D
:1001A000089585B18E7F85B985B1826085B985B1A5
:1001B0008F7E85B985B18F7D85B985B18F7B85B9F6
:1001C00085B18F7785B985B1846085B985E88A95D1
:1001D000F1F7000089B180788093320285B18B7F7E
:1001E00085B985E88A95F1F700000E94C2008091E8
:1001F00032028111E8CF85B1806185B985B1806215
:1002000085B985B1806485B985B1806885B908955F
:10021000CF93C82F85B18D7F85B985B18F709C2F05
:10022000907F892B85B90E94C20025B130E1C39F20
:10023000C0011124922F9F70892B85B90E94C200A2
:10024000CF910895CF93C82F0E94D10085B18160CE
:1002500085B98C2F0E940801CF910895CF93C82FA4
:100260000E94D10085B18E7F85B98C2F0E94080134
:10027000CF91089581E00E942E01089580680E9428
:100280002E0108958FEF84B985B18E7F85B985B130
:100290008D7F85B92FEF89EF90E02150804090400D
:1002A000E1F700C0000085B18F7785B985B18F7BFC
:1002B00085B985B1806285B985B1806185B90E94B3
:1002C000C2008FE097E20197F1F700C000000E94A2
:1002D000C2008FEC97E00197F1F700C000000E9488
:1002E000C2008FE097E20197F1F700C0000085B1EE
:1002F0008F7785B985B18F7B85B985B1806285B9E6
:1003000085B18F7E85B90E94C2008FEE90E0019783
:10031000F1F700C000008CE20E9408019AE69A956D
:10032000F1F700C088E00E9408012AE62A95F1F75B
:1003300000C08CE00E9408018AE68A95F1F700C0AF
:1003400086E00E9408010895CF9380E00E943E015C
:10035000C0E0C03158F40E94D100EC2FF0E0ED5B1A
:10036000FD4F80810E942201CF5FF3CF80E40E9485
:100370003E01C0E0C03158F40E94D100EC2FF0E003
:10038000ED5CFD4F80810E942201CF5FF3CFCF91C2
:1003900008951F920F920FB60F9211248F93EF932F
:1003A000FF931092B2001092B100E0E7F0E080817C
:1003B0008E7F808310928502FF91EF918F910F9035
:1003C0000FBE0F901F9018951F920F920FB60F92AD
:1003D00011240F900FBE0F901F9018951F920F922F
:1003E0000FB60F9211248F93EF93FF9380913102F8
:1003F0008F5F809331028230D0F010923102EFEEA5
:10040000F3E080818F5F808380818C3380F0108265
:1004100081818F5F818381818C3348F01182828159
:100420008F5F82838281883110F01092F103809176
:1004300074028F5F80937402FF91EF918F910F9000
:100440000FBE0F901F9018951F920F920FB60F922C
:1004500011248F9388B1877F88B988B18F7E88B93E
:100460008F910F900FBE0F901F901895862B809341
:100470007C008FE19EE40197F1F700C00000EAE7FD
:10048000F0E080818064808380917A0084FFFCCFDB
:10049000EAE7F0E08081806180838091780090912C
:1004A00079000895CF93DF93C09153020C2E000C76
:1004B000DD0B60E481E00E943602CC0FDD1FCC59D9
:1004C000DD4F99838883C09153020C2E000CDD0B05
:1004D00060E480E00E943602CC0FDD1FCC5ADD4F75
:1004E00099838883809153028F5F80935302883071
:1004F0000CF45EC080E090E060E070E08830910530
:100500005CF4FC01EE0FFF1FEC59FD4F208131819F
:10051000620F731F0196F2CF769567957695679572
:100520007695679580E090E00E94E20420E030EA52
:100530004BE955E40E94700520E030EC4FE754E4AD
:100540000E943A040E94AC04709378026093770290
:1005500080E090E060E070E0883091055CF4FC01A0
:10056000EE0FFF1FEC5AFD4F20813181620F731F88
:100570000196F2CF7695679576956795769567950E
:1005800080E090E00E94E20420E030EA4BE955E48C
:100590000E94700520E030EC4FE754E40E943A04DA
:1005A0000E94AC0470937A02609379021092530215
:1005B00081E080938402DF91CF9108958091880239
:1005C000813019F0823021F01AC00E94420117C018
:1005D00080E090E08031910594F4FC01E957FD4FF3
:1005E0002281FC01ED5BFD4F2083FC01E956FD4FAC
:1005F0002281FC01ED5CFD4F20830196EBCF0E9430
:10060000A401E5E8F2E0128213820895CF93DF930C
:10061000CDB7DEB72E970FB6F894DEBF0FBECDBFB5
:100620008AEE97E09987888788E08A8785E08B87BC
:10063000EFEEF3E082818C8781818D8780818E87C8
:1006400087E0FE013896DE01119601900D928A95A1
:10065000E1F729813A814B815C816D817E818F81B7
:1006600090E02E960FB6F894DEBF0FBECDBFDF919F
:10067000CF910895CF93DF93CDB7DEB727970FB60D
:10068000F894DEBF0FBECDBF0E9406037E838F832A
:100690008AE00E943E019F818E811F929F931F924C
:1006A0008F9384E191E09F938F9383E492E09F93F3
:1006B0008F930E9405060E94A4010FB6F894DEBF36
:1006C0000FBECDBF27960FB6F894DEBF0FBECDBFCD
:1006D000DF91CF9108950E9471000E9453008FE135
:1006E0009EE40197F1F700C000000E94420181E101
:1006F000EEE1F1E0A3E4B2E001900D928A95E1F71A
:1007000081E1EFE2F1E0A3E3B2E001900D928A957E
:10071000E1F70E94A4019FEF23ED80E39150204078
:100720008040E1F700C000000E943A010E944201AF
:100730000E94A40110928102E5E7F2E088E592E0D0
:100740009783868388E290E091838083E5E7F2E0F7
:10075000C281D381048115810E943A038091EF0305
:10076000811104C0B801CE010E945A0040910001DD
:10077000B801CE010E94D70380918102882321F025
:10078000109281020E94DE0280918402882321F06F
:10079000109284020E945202809174028230B0F260
:1007A000109274029BB180E489278BB9CFCFCF938D
:1007B000DF93EEECF3E0918380837383628350E0F8
:1007C0005583448320E030E02C3331051CF5C9010A
:1007D000880F991FD901AA0FBB1FAA0FBB1FAF5BC0
:1007E000BE4F4D915C911197FC01EE0FFF1FE2523D
:1007F000FD4F51834083FC01319612968D919C915F
:100800001397EE0FFF1FE252FD4F918380832F5FFE
:100810003F4FDACF0E941904CEEBD2E090E09983EB
:1008200088830E942B0490E09B838A83DF91CF9181
:1008300008958091EE03089583B18695869591E0A1
:1008400089278170089583B186958695869591E074
:10085000892781700895CF930E941C04811102C0E2
:10086000C0E001C0C1E00E9423048111C2608C2F4E
:10087000CF9108950E944E040C9436050E942F05D6
:1008800058F00E94280540F029F45F3F29F00C94AD
:100890001F0551110C946A050C9425050E9447050B
:1008A00068F39923B1F3552391F3951B550BBB279F
:1008B000AA2762177307840738F09F5F5F4F220FE4
:1008C000331F441FAA1FA9F335D00E2E3AF0E0E8DB
:1008D00032D091505040E695001CCAF72BD0FE2F25
:1008E00029D0660F771F881FBB1F261737074807B9
:1008F000AB07B0E809F0BB0B802DBF01FF27935871
:100900005F4F3AF09E3F510578F00C941F050C9410
:100910006A055F3FE4F3983ED4F386957795679533
:10092000B795F7959F5FC9F7880F911D96958795A5
:1009300097F90895E1E0660F771F881FBB1F6217C4
:1009400073078407BA0720F0621B730B840BBA0B82
:10095000EE1F88F7E09508950E94B3046894B111E2
:100960000C946A0508950E944F0588F09F5798F0EF
:10097000B92F9927B751B0F0E1F0660F771F881FA4
:10098000991F1AF0BA95C9F714C0B13091F00E94BE
:100990006905B1E008950C946905672F782F8827C1
:1009A000B85F39F0B93FCCF3869577956795B395E5
:1009B000D9F73EF490958095709561957F4F8F4F54
:1009C0009F4F0895E89409C097FB3EF49095809559
:1009D000709561957F4F8F4F9F4F9923A9F0F92F05
:1009E00096E9BB279395F695879577956795B79583
:1009F000F111F8CFFAF4BB0F11F460FF1BC06F5F69
:100A00007F4F8F4F9F4F16C0882311F096E911C07A
:100A1000772321F09EE8872F762F05C0662371F09B
:100A200096E8862F70E060E02AF09A95660F771FAF
:100A3000881FDAF7880F9695879597F9089597F9A3
:100A40009F6780E870E060E008959FEF80EC089574
:100A500000240A941616170618060906089500249D
:100A60000A9412161306140605060895092E039417
:100A7000000C11F4882352F0BB0F40F4BF2B11F48B
:100A800060FF04C06F5F7F4F8F4F9F4F089557FDEA
:100A90009058440F551F59F05F3F71F04795880FEC
:100AA00097FB991F61F09F3F79F087950895121683
:100AB00013061406551FF2CF4695F1DF08C016162F
:100AC00017061806991FF1CF8695710561050894E0
:100AD0000895E894BB2766277727CB0197F90895F7
:100AE0000E9483050C9436050E94280538F00E9468
:100AF0002F0520F0952311F00C941F050C9425056B
:100B000011240C946A050E94470570F3959FC1F368
:100B1000950F50E0551F629FF001729FBB27F00DAB
:100B2000B11D639FAA27F00DB11DAA1F649F662700
:100B3000B00DA11D661F829F2227B00DA11D621F4F
:100B4000739FB00DA11D621F839FA00D611D221F09
:100B5000749F3327A00D611D231F849F600D211DED
:100B6000822F762F6A2F11249F5750409AF0F1F070
:100B700088234AF0EE0FFF1FBB1F661F771F881FD9
:100B800091505040A9F79E3F510580F00C941F05ED
:100B90000C946A055F3FE4F3983ED4F3869577950D
:100BA0006795B795F795E7959F5FC1F7FE2B880F7F
:100BB000911D9695879597F9089597FB072E16F442
:100BC000009407D077FD09D00E94F10507FC05D0FD
:100BD0003EF4909581959F4F0895709561957F4F54
:100BE0000895AA1BBB1B51E107C0AA1FBB1FA61774
:100BF000B70710F0A61BB70B881F991F5A95A9F7C6
:100C000080959095BC01CD010895AEE0B0E0EBE099
:100C1000F6E00C94C6080D891E8986E08C831A8341
:100C200009838FEF9FE79E838D83AE01475E5F4F01
:100C30006F89788DCE0101960E942706EF81F88595
:100C4000E00FF11F10822E96E4E00C94E208ABE076
:100C5000B0E0EDE2F6E00C94B8086C017B018A018B
:100C6000FC0117821682838181FFCCC1CE010196DF
:100C70003C01F6019381F70193FD859193FF8191EA
:100C80007F01882309F4BAC1853239F493FD859137
:100C900093FF81917F01853229F4B60190E00E9493
:100CA0001E08E7CF912C212C312CFFE1F315D8F051
:100CB0008B3279F038F4803279F08332A1F4232D2D
:100CC00020611DC08D3261F0803369F4232D2160D5
:100CD00016C0832D8260382EE32DE4603E2E2AC09C
:100CE000F32DF8601DC037FC2DC020ED280F2A30F1
:100CF00040F08E32B9F436FC81C1232D2064322EAF
:100D000019C036FE06C08AE0989E200D1124922E4E
:100D100011C0EAE02E9E200D1124222EF32DF06248
:100D20003F2E08C08C3621F4832D8068382E02C0F7
:100D3000883641F4F70193FD859193FF81917F01FE
:100D40008111B3CF982F9F7D9554933028F40C5F79
:100D50001F4F9FE399830DC0833631F0833771F0C5
:100D6000833509F059C021C0F801808189830E5F65
:100D70001F4F88248394912C530113C02801F2E063
:100D80004F0E511CF801A080B18036FE03C0692DC2
:100D900070E002C06FEF7FEFC5010E9413084C01A5
:100DA0008201F32DFF773F2E16C0280122E0420E6C
:100DB000511CF801A080B18036FE03C0692D70E09F
:100DC00002C06FEF7FEFC5010E9408084C01F32DB0
:100DD000F0683F2E820133FC1BC0822D90E0881604
:100DE0009906B0F4B60180E290E00E941E082A94B1
:100DF000F4CFF50137FC859137FE81915F01B60193
:100E000090E00E941E0821102A9421E0821A910885
:100E10008114910471F7E8C0843611F0893641F5E8
:100E2000F80137FE07C060817181828193810C5F78
:100E30001F4F08C060817181072E000C880B990B31
:100E40000E5F1F4FF32DFF763F2E97FF09C0909541
:100E50008095709561957F4F8F4F9F4FF0683F2E23
:100E60002AE030E0A3010E945A08882E861845C067
:100E7000853731F4232D2F7EB22E2AE030E025C0B5
:100E8000932D997FB92E8F36C1F018F4883579F0FB
:100E9000B5C0803719F0883721F0B0C0E92FE06184
:100EA000BE2EB4FE0DC0FB2DF460BF2E09C034FE73
:100EB0000AC0292F2660B22E06C028E030E005C007
:100EC00020E130E002C020E132E0F801B7FE07C0C7
:100ED00060817181828193810C5F1F4F06C06081A8
:100EE000718180E090E00E5F1F4FA3010E945A08BD
:100EF000882E8618FB2DFF773F2E36FE0DC0232D42
:100F00002E7FA22E891458F434FE0BC032FC09C087
:100F1000832D8E7EA82E05C0B82CA32C03C0B82C20
:100F200001C0B92CA4FE0FC0FE01E80DF11D8081A7
:100F3000803321F49A2D997EA92E09C0A2FE06C005
:100F4000B394B39404C08A2D867809F0B394A3FCBB
:100F500011C0A0FE06C0B21488F4280C922C9B1875
:100F60000EC0B21460F4B60180E290E00E941E0848
:100F7000B394F7CFB21418F42B1802C0982C212C7C
:100F8000A4FE10C0B60180E390E00E941E08A2FEFD
:100F900017C0A1FC03C088E790E002C088E590E09C
:100FA000B6010CC08A2D867859F0A1FE02C08BE2F2
:100FB00001C080E2A7FC8DE2B60190E00E941E080D
:100FC000891438F4B60180E390E00E941E089A94D8
:100FD000F7CF8A94F301E80DF11D8081B60190E00E
:100FE0000E941E088110F5CF222009F442CEB601DE
:100FF00080E290E00E941E082A94F6CFF6018681D6
:10100000978102C08FEF9FEF2B96E2E10C94D408FA
:10101000FC010590615070400110D8F780959095C3
:101020008E0F9F1F0895FC016150704001900110C8
:10103000D8F7809590958E0F9F1F08950F931F935B
:10104000CF93DF93FB01238121FD03C08FEF9FEF3F
:101050002CC022FF16C0468157812481358142175A
:10106000530744F4A081B1819D012F5F3F4F31832D
:1010700020838C93268137812F5F3F4F37832683D0
:1010800014C08B01EC01FB010084F185E02D099572
:10109000892BE1F6D80116968D919C9117970196B0
:1010A00017969C938E931697CE01DF91CF911F9147
:1010B0000F910895FA01AA27283051F1203181F1CA
:1010C000E8946F936E7F6E5F7F4F8F4F9F4FAF4F50
:1010D000B1E03ED0B4E03CD0670F781F891F9A1F63
:1010E000A11D680F791F8A1F911DA11D6A0F711D17
:1010F000811D911DA11D20D009F468943F912AE023
:10110000269F11243019305D3193DEF6CF0108950A
:10111000462F4770405D4193B3E00FD0C9F7F6CF3B
:10112000462F4F70405D4A3318F0495D31FD405203
:10113000419302D0A9F7EACFB4E0A6959795879599
:1011400077956795BA95C9F7009761057105089578
:101150009B01AC010A2E0694579547953795279524
:10116000BA95C9F7620F731F841F951FA01D0895BC
:101170002F923F924F925F926F927F928F929F92A7
:10118000AF92BF92CF92DF92EF92FF920F931F9395
:10119000CF93DF93CDB7DEB7CA1BDB0B0FB6F89446
:1011A000DEBF0FBECDBF09942A88398848885F8486
:1011B0006E847D848C849B84AA84B984C884DF80F7
:1011C000EE80FD800C811B81AA81B981CE0FD11DDB
:1011D0000FB6F894DEBF0FBECDBFED010895F894B1
:0211E000FFCF3F
:1011E20002696E74656E73696461642025306925D5
:1011F20030692000253032693A25303269002053A7
:1012020045475549444F5220534F4C415220002DDF
:101212002042696E74654B286329203230323600D1
:00000001FF
